:100000000C9446000C9463000C9463000C94630001
:100010000C9463000C9463000C9463000C946300D4
:100020000C9463000C9463000C9463000C946300C4
:100030000C9463000C9463000C9463000C946300B4
:100040000C9463000C9463000C9463000C946300A4
:100050000C9463000C9463000C9463000C94630094
:100060000C9463000C9463000C9463000C94630084
:100070000C9463000C9463000C9463000C94630074
:100080000C9463000C9463000C94630011241FBE55
:10009000CFEFD0E1DEBFCDBF11E0A0E0B1E0EEE0F8
:1000A000F9E002C005900D92A632B107D9F711E030
:1000B000A6E2B1E001C01D92AA33B107E1F70E94A8
:1000C0009B000C9485040C9400001092980087E625
:1000D00080939900EAE9F0E0808188618083089547
:1000E00080939C0080919B0085FFFCCF08958091B8
:1000F0009B0087FFFCCF80919C000895FC0107C006
:1001000080939C0080919B0085FFFCCF319680817D
:100110008823B1F7089580EE87B987E886B90895F6
:1001200097B1907E982B97B9369A349BFECF349A2C
:1001300085B190E008952F923F924F925F926F9217
:100140007F928F929F92AF92BF92CF92DF92EF9267
:10015000FF921F93DF93CF93CDB7DEB7CA55D04040
:100160000FB6F894DEBF0FBECDBF80EE87B987E82B
:1001700086B91092980087E68093990080919A0042
:10018000886180939A008FEF84BB5E010894A11C64
:10019000B11C5FE1C52ED12CCC0EDD1E4EE0242E0D
:1001A00041E0342E3DE3E32EF12CEC0EFD1E2AE15E
:1001B000422E21E0522E9FEF692E712C80E9882E6D
:1001C00081E0982E87B1807E816087B9369A349B12
:1001D000FECF349A15B100D000D000D0EDB7FEB7F5
:1001E0003196ADB7BEB71296BC92AE92119720E091
:1001F00031E033832283148315820E94AD01F5011F
:100200008DB79EB706960FB6F8949EBF0FBE8DBFF2
:1002100007C080939C0080919B0085FFFCCF3196A6
:1002200080818823B1F7109515BB87B1807E8260ED
:1002300087B9369A349BFECF349A85B100D000D06E
:1002400000D0EDB7FEB73196ADB7BEB71296DC92CF
:10025000CE92119733822282848315820E94AD014F
:10026000F6012DB73EB72A5F3F4F0FB6F8943EBF59
:100270000FBE2DBF07C080939C0080919B0085FF1F
:10028000FCCF319680818823B1F787B1807E87B912
:10029000369A349BFECF349A85B100D000D000D07E
:1002A000EDB7FEB73196ADB7BEB71296FC92EE929F
:1002B0001197538242829301281B3109358324838D
:1002C0000E94AD01F7018DB79EB706960FB6F89460
:1002D0009EBF0FBE8DBF07C080939C0080919B0086
:1002E00085FFFCCF319680818823B1F78CED95E0B6
:1002F000F4013197F1F70197D9F764CF0F931F936A
:1003000000D000D000D0EDB7FEB7319606E211E084
:10031000ADB7BEB712961C930E93119723E231E04E
:1003200033832283958384830E94AD01F8018DB7C6
:100330009EB706960FB6F8949EBF0FBE8DBF07C03E
:1003400080939C0080919B0085FFFCCF319680813B
:100350008823B1F71F910F910895AEE0B0E0E3EB71
:10036000F1E00C945C040D891E8986E08C831A836D
:1003700009838FEF9FE79E838D839E01275E3F4F0A
:10038000CE0101966F89788DA9010E94D1012F813C
:100390003885020F131FF80110822E96E4E00C94AA
:1003A0007804ABE0B0E0E7EDF1E00C944E043C01E2
:1003B0002B015A01FC0117821682838181FD03C043
:1003C0006FEF7FEFC6C19AE0892E1E010894211CB1
:1003D000311CF3012381F20123FD859123FF8191DB
:1003E0002F01882309F4B2C1853239F423FD8591A8
:1003F00023FF81912F01853229F490E0B3010E94FF
:10040000C403E7CF982FFF24EE249924FFE1FF15C2
:10041000D0F09B3269F09C3228F4903259F093323C
:1004200091F40EC09D3249F0903369F441E024C04C
:1004300052E0F52A84E0F82A28C098E0F92A25C07D
:10044000E0E1FE2A22C0F7FC29C0892F80538A30C0
:1004500070F4F6FE05C0989C902C1124980E15C0DF
:10046000E89CE02C1124E80EF0E2FF2A0EC09E3238
:1004700029F4F6FC6BC140E4F42A07C09C3619F459
:1004800050E8F52A02C0983649F4F20123FD95910F
:1004900023FF91912F01992309F0B8CF892F85541B
:1004A000833018F08052833038F444E050E0A40EDA
:1004B000B51E5FE359830FC0933631F0933779F05F
:1004C000933509F056C020C0F5018081898342E050
:1004D00050E0A40EB51E610101E010E012C0F5016C
:1004E000C080D180F6FC03C06FEF7FEF02C0692DA2
:1004F00070E042E050E0A40EB51EC6010E94B903B0
:100500008C015FE7F52214C0F501C080D180F6FCB4
:1005100003C06FEF7FEF02C0692D70E042E050E052
:10052000A40EB51EC6010E94AE038C0150E8F52A48
:10053000F3FE07C01AC080E290E0B3010E94C4033A
:10054000EA948E2D90E008171907A8F30EC0F60163
:10055000F7FC8591F7FE81916F0190E0B3010E9455
:10056000C403E110EA94015010400115110579F718
:10057000EAC0943611F0993669F5F7FE08C0F50126
:10058000208131814281538184E090E00AC0F501ED
:10059000808191819C01442737FD4095542F82E052
:1005A00090E0A80EB91E9FE6F92257FF09C05095AA
:1005B0004095309521953F4F4F4F5F4FE0E8FE2A21
:1005C000CA01B901A1012AE030E00E94F003D82E4F
:1005D000D21840C0953729F41F2D1F7E2AE030E045
:1005E0001DC01F2D197F9F3661F0903720F498357C
:1005F00009F0ACC00FC0903739F0983709F0A6C0A9
:1006000004C028E030E00AC0106114FD146020E14D
:1006100030E004C014FD166020E132E017FF08C08E
:10062000F501608171818281938144E050E008C0CE
:10063000F50180819181BC0180E090E042E050E0D2
:10064000A40EB51EA1010E94F003D82ED2188FE788
:10065000F82EF122F6FE0BC05EEFF522D91438F425
:10066000F4FE07C0F2FC05C08FEEF82202C01D2D7B
:1006700001C0192DF4FE0DC0FE01ED0DF11D8081AC
:10068000803319F499EEF92208C01F5FF2FE05C00D
:1006900003C08F2D867809F01F5F0F2DF3FC14C067
:1006A000F0FE0FC01E1510F09D2C0BC09D2C9E0C53
:1006B000911A1E2D06C080E290E0B3010E94C4038F
:1006C0001F5F1E15C0F304C01E1510F4E11A01C00F
:1006D000EE2404FF0FC080E390E0B3010E94C40346
:1006E00002FF1DC001FD03C088E790E00EC088E551
:1006F00090E00BC0802F867891F001FF02C08BE262
:1007000001C080E2F7FC8DE290E0B3010E94C403D7
:1007100006C080E390E0B3010E94C4039A94D91408
:10072000C0F3DA94F101ED0DF11D808190E0B30189
:100730000E94C403DD20A9F706C080E290E0B30167
:100740000E94C403EA94EE20C1F743CEF301668110
:100750007781CB012B96E2E10C946A04FC010590B1
:10076000615070400110D8F7809590958E0F9F1FB3
:100770000895FC016150704001900110D8F78095F8
:1007800090958E0F9F1F08950F931F93CF93DF9324
:100790008C01EB018B8181FF1BC082FF0DC02E817C
:1007A0003F818C819D812817390764F4E881F981A4
:1007B0000193F983E88306C0E885F985802F0995C0
:1007C000892B31F48E819F8101969F838E8302C095
:1007D0000FEF1FEFC801DF91CF911F910F91089587
:1007E000FA01AA27283051F1203181F1E8946F9362
:1007F0006E7F6E5F7F4F8F4F9F4FAF4FB1E03ED008
:10080000B4E03CD0670F781F891F9A1FA11D680FA5
:10081000791F8A1F911DA11D6A0F711D811D911DD8
:10082000A11D20D009F468943F912AE0269F11244D
:100830003019305D3193DEF6CF010895462F4770B1
:10084000405D4193B3E00FD0C9F7F6CF462F4F700C
:10085000405D4A3318F0495D31FD4052419302D06A
:10086000A9F7EACFB4E0A695979587957795679510
:10087000BA95C9F700976105710508959B01AC0110
:100880000A2E06945795479537952795BA95C9F737
:10089000620F731F841F951FA01D08952F923F9212
:1008A0004F925F926F927F928F929F92AF92BF9280
:1008B000CF92DF92EF92FF920F931F93CF93DF932C
:1008C000CDB7DEB7CA1BDB0B0FB6F894DEBF0FBE89
:1008D000CDBF09942A88398848885F846E847D84D6
:1008E0008C849B84AA84B984C884DF80EE80FD80D8
:1008F0000C811B81AA81B981CE0FD11D0FB6F8944E
:0E090000DEBF0FBECDBFED010895F894FFCF0E
:10090E000A20582D617869733A2025640900592D03
:10091E00617869733A20256409004C44523A2025C7
:06092E00640A00256400CC
:00000001FF
