:100000000C942A000C9434000C9434000C943400AA
:100010000C9434000C9434000C9434000C94340090
:100020000C9434000C9434000C9434000C94340080
:100030000C9434000C9434000C9434000C94340070
:100040000C9434000C9434000C9434000C94340060
:100050000C94340011241FBECFE5D4E0DEBFCDBF29
:100060000E943B000C9466000C9400009BBD8ABD6E
:1000700079BD68BD0895D098D89A83E087BB88BBC6
:100080008AB188618AB980B5866880BD83E389B901
:1000900010BC80E197E297BD86BD80EA8FBD82E10A
:1000A0008EBD81E687B98FE886B929E130E0369ABE
:1000B000349BFECF5D9BFECF85B18CB980E197E28A
:1000C000F9013197F1F70197D9F7F1CFF894FFCF04
:00000001FF
