:100000000C942A000C9434000C9434000C943400AA
:100010000C9434000C9434000C9434000C94340090
:100020000C9434000C9434000C9434000C94340080
:100030000C9434000C9434000C9434000C94340070
:100040000C9434000C9434000C9434000C94340060
:100050000C94340011241FBECFE5D4E0DEBFCDBF29
:100060000E9466000C94CD000C940000882311F4CB
:10007000C498C598662311F4C698C798813011F4C6
:10008000C49AC598613011F4C79AC698823011F4A9
:10009000C59AC498623011F4C69AC798089581E64B
:1000A00087B98FE886B9349BFECF85B190E008957B
:1000B00083E687B98FE886B9349BFECF85B190E09F
:1000C00008959BBD8ABD79BD68BD0895FF920F93C9
:1000D0001F938FEF87BB81BB88BB82BB1BBA8AB1E2
:1000E00088618AB980B5866880BD83E389B910BC10
:1000F00080E197E297BD86BD80EA8FBD82E18EBD2B
:1001000081E6F82E1FE803E681E061E00E943600F8
:10011000F7B816B9349BFECF35B107B916B9349B81
:10012000FECF25B1832F90E060E070E00E94A60032
:100130007BBD6ABD822F90E060E070E00E94A60067
:1001400079BD68BD5D9BFECF3CB9DECF97FB092E24
:1001500007260AD077FD04D00CD006D000201AF470
:10016000709561957F4F0895F6F7909581959F4F13
:100170000895AA1BBB1B51E107C0AA1FBB1FA617EE
:10018000B70710F0A61BB70B881F991F5A95A9F740
:0E01900080959095BC01CD010895F894FFCFA5
:00000001FF
