:100000000C942A000C943C000C943C000C943C0092
:100010000C943C000C943C000C943C000C943C0070
:100020000C943C000C943C000C943C000C943C0060
:100030000C943C000C943C000C943C000C943C0050
:100040000C943C000C943C000C943C000C943C0040
:100050000C943C0011241FBECFE5D4E0DEBFCDBF21
:1000600010E0A0E6B0E001C01D92A136B107E1F7B3
:100070000E9463000C94DF000C940000882311F4AC
:10008000C498C598662311F4C698C798813011F4B6
:10009000C49AC598613011F4C79AC698823011F499
:1000A000C59AC498623011F4C69AC7980895829987
:1000B00004C080E690E06FEF03C080E690E060E06F
:1000C0000E94D20008950F931F93CF93DF931FEFE9
:1000D0000CEFC9E1D0E011BA12BB17BB08BB839982
:1000E00003C00E945700F7CF80E690E00E94CA004C
:1000F0008F3FE9F5C99908C0CA9906C0CB9904C0D9
:1001000081E061E00E943E00C99B08C0CA9906C018
:10011000CB9904C080E061E00E943E00C99B08C00A
:10012000CA9B06C0CB9904C082E061E00E943E00F9
:10013000C99908C0CA9906C0CB9B04C081E060E0A1
:100140000E943E00C99908C0CA9B06C0CB9B04C050
:1001500081E062E00E943E00C99BBDCFCA9BBBCF3D
:10016000CB9BB9CF80E060E00E943E00B4CFC09A44
:10017000C19A88E893E1FE013197F1F70197D9F729
:10018000C098C19888E893E1FE013197F1F7019793
:10019000D9F7A1CFE199FECF9FBB8EBBE09A9927FB
:1001A0008DB30895262FE199FECF9FBB8EBB2DBB4B
:1001B0000FB6F894E29AE19A0FBE01960895F8946A
:0201C000FFCF6F
:00000001FF
