:100000000C942A000C943C000C943C000C943C0092
:100010000C943C000C943C000C943C000C943C0070
:100020000C943C000C943C000C943C000C943C0060
:100030000C943C000C943C000C943C000C943C0050
:100040000C943C000C943C000C943C000C943C0040
:100050000C943C0011241FBECFE5D4E0DEBFCDBF21
:1000600010E0A0E6B0E001C01D92A136B107E1F7B3
:100070000E9463000C9458010C940000882311F432
:10008000C498C598662311F4C698C798813011F4B6
:10009000C49AC598613011F4C79AC698823011F499
:1000A000C59AC498623011F4C69AC7980895829987
:1000B00004C080E690E06FEF03C080E690E060E06F
:1000C0000E944B0108950F931F93CF93DF931FEF6F
:1000D0000CEFC9E1D0E011BA12BB17BB08BBDE9828
:1000E000DF98839903C00E945700F5CF80E690E027
:1000F0000E9443018F3F09F0B3C0C098C198C999CD
:100100000CC0CA990AC0CB9908C0C89B06C0CD9B39
:1001100004C081E061E00E943E00C9990CC0CA9908
:100120000AC0CB9908C0C89906C0CD9904C081E027
:1001300061E00E943E00C99B0AC0CA9908C0CB99E1
:1001400006C0C89B04C080E061E00E943E00C99BDD
:100150000CC0CA9B0AC0CB9908C0CC9906C0C89BEA
:1001600004C080E061E00E943E00C9990AC0CA99BB
:1001700008C0CB9B06C0CC9B04C081E060E00E941D
:100180003E00C9990CC0CA9B0AC0CB9B08C0C89945
:1001900006C0CC9B04C081E060E00E943E00C99B89
:1001A0000CC0CA9B0AC0CB9B08C0C89906C0CC999A
:1001B00004C080E060E00E943E00C8990CC0C99B6A
:1001C0000AC0CA9B08C0CB9B06C0CC9B04C081E080
:1001D00060E00E943E00C89B0CC0C9990AC0CA9941
:1001E00008C0CB9906C0CC9904C082E061E00E94AF
:1001F0003E00C99B0CC0CA9B0AC0CB9B08C0C89BD1
:1002000006C0CC9904C081E060E00E943E00C9991C
:100210000CC0CA990AC0CB9908C0C89906C0CC9B2B
:1002200004C081E062E00E943E00C99B0CC0CA9BF2
:100230000AC0CB9B08C0C89B06C0CC9B04C082E010
:1002400062E00E943E00CE9B04C080E060E00E941D
:100250003E00CF9B40CF80E060E00E943E003BCF5D
:10026000C09AC19A88E893E1FE013197F1F70197AE
:10027000D9F7C098C19888E893E1FE013197F1F76A
:100280000197D9F728CFE199FECF9FBB8EBBE09AAB
:1002900099278DB30895262FE199FECF9FBB8EBB82
:1002A0002DBB0FB6F894E29AE19A0FBE019608951D
:0402B000F894FFCFF0
:00000001FF
