:100000000C942A000C9434000C9434000C943400AA
:100010000C9434000C9434000C9434000C94340090
:100020000C9434000C9434000C9434000C94340080
:100030000C9434000C9434000C9434000C94340070
:100040000C9434000C9434000C9434000C94340060
:100050000C94340011241FBECFE5D4E0DEBFCDBF29
:100060000E9436000C9470000C94000011BA83E0DA
:1000700087BB8FEF82BB18BA829907C0839B05C0EC
:1000800080E190E060E10E946300829B07C0839959
:1000900005C080E190E061E10E9463008299ECCFAD
:1000A0008399EACF80E190E00E945B00813119F7EB
:1000B000C09AC19AE1CFE199FECF9FBB8EBBE09A77
:1000C00099278DB30895262FE199FECF9FBB8EBB54
:1000D0002DBB0FB6F894E29AE19A0FBE01960895EF
:0400E000F894FFCFC2
:00000001FF
