:100000000C942A000C9434000C9434000C943400AA
:100010000C9434000C9434000C9434000C94340090
:100020000C9434000C9434000C9434000C94340080
:100030000C9434000C9434000C9434000C94340070
:100040000C9434000C9434000C9434000C94340060
:100050000C94340011241FBECFE5D4E0DEBFCDBF29
:100060000E944F000C94E1000C940000882311F4CE
:10007000C498C598662311F4C698C798813011F4C6
:10008000C49AC598613011F4C79AC698823011F4A9
:10009000C59AC498623011F4C69AC79808959FEF24
:1000A00097BB91BB8CEF88BB92BB1BBAC098C19821
:1000B000C9990CC0CA990AC0CB9908C0C89B06C090
:1000C000CD9B04C081E061E00E943600C9990CC05C
:1000D000CA990AC0CB9908C0C89906C0CD9904C076
:1000E00081E061E00E943600C99B0AC0CA9908C03D
:1000F000CB9906C0C89B04C080E061E00E94360036
:10010000C99B0CC0CA9B0AC0CB9908C0CC9906C039
:10011000C89B04C080E061E00E943600C9990AC013
:10012000CA9908C0CB9B06C0CC9B04C081E060E0AC
:100130000E943600C9990CC0CA9B0AC0CB9B08C05C
:10014000C89906C0CC9B04C081E060E00E943600E4
:10015000C99B0CC0CA9B0AC0CB9B08C0C89906C0EB
:10016000CC9904C080E060E00E943600C8990CC0C1
:10017000C99B0AC0CA9B08C0CB9B06C0CC9B04C0CD
:1001800081E060E00E943600C99B0CC0CA9B0AC097
:10019000CB9B08C0C89B06C0CC9904C081E060E03E
:1001A0000E943600C99B82CFCA9B80CFCB9B7ECF5B
:1001B000C89B7CCFCC9B7ACF82E062E00E94360065
:0601C00075CFF894FFCF9B
:00000001FF
