:100000000C942A000C9434000C9434000C943400AA
:100010000C9434000C9434000C9434000C94340090
:100020000C9434000C9434000C9434000C94340080
:100030000C9434000C9434000C9434000C94340070
:100040000C9434000C9434000C9434000C94340060
:100050000C94340011241FBECFE5D4E0DEBFCDBF29
:100060000E9454000C94F9000C940000882311F4B1
:10007000C498C598662311F4C698C798813011F4C6
:10008000C49AC598613011F4C79AC698823011F4A9
:10009000C59AC498623011F4C69AC79808959BBD5A
:1000A0008ABD79BD68BD0895CF92DF92EF92FF922D
:1000B0000F931F93CF93DF938FEF87BB81BB88BBD9
:1000C00082BB1BBA80E197E297BD86BD80EA8FBDF7
:1000D00082E18EBDC0E1D7E29CE4C92E9DE1D92E1C
:1000E00088E8E82E83E1F82E04EC19E081E061E075
:1000F0000E943600C89B0CC0C99B0AC0CA9908C0A0
:10010000CB9B06C0CC9B04C0DBBDCABDD9BDC8BD5E
:10011000C89B0CC0C99B0AC0CA9908C0CB9906C02D
:10012000CC9B04C0DBBDCABDD9BCC8BCC89B0CC03D
:10013000C9990AC0CA9908C0CB9B06C0CC9B04C011
:10014000DBBCCABCD9BDC8BDC89B0CC0C99B0AC01A
:10015000CA9908C0CB9906C0CC9904C0DBBDCABD02
:10016000F9BCE8BCC8990CC0C9990AC0CA9908C0B2
:10017000CB9B06C0CC9B04C0FBBCEABCD9BDC8BDB0
:10018000C89B0CC0C99B0AC0CA9B08C0CB9906C0BB
:10019000CC9904C0DBBDCABD19BD08BDC8990CC04F
:1001A000C9990AC0CA9B08C0CB9B06C0CC9B04C09F
:1001B0001BBD0ABDD9BDC8BDC89B0CC0C99B0AC028
:1001C000CA9B08C0CB9B06C0CC9904C0DBBDCABD8E
:1001D00019BC18BCC8998ACFC99B88CFCA9B86CF47
:1001E000CB9B84CFCC9B82CF1BBC1ABCD9BDC8BDD6
:0601F0007DCFF894FFCF63
:00000001FF
