:100000000C942A000C9434000C9434000C943400AA
:100010000C9434000C9434000C9434000C94340090
:100020000C9434000C9434000C9434000C94340080
:100030000C9434000C9434000C9434000C94340070
:100040000C9434000C9434000C9434000C94340060
:100050000C94340011241FBECFE5D4E0DEBFCDBF29
:100060000E94E6000C9409010C940000882311F40E
:10007000C498C598662311F4C698C798813011F4C6
:10008000C49AC598613011F4C79AC698823011F4A9
:10009000C59AC498623011F4C69AC7980895C99950
:1000A0000CC0CA990AC0CB9908C0C89B06C0CC9B9B
:1000B00004C081E061E00E943600C9990CC0CA9971
:1000C0000AC0CB9908C0C89906C0CC9904C081E089
:1000D00061E00E943600C99B0CC0CA990AC0CB9B44
:1000E00008C0C89B06C0CC9B04C081E061E00E94B0
:1000F0003600C99B0AC0CA9908C0CB9906C0C89BE4
:1001000004C080E061E00E943600C99B0CC0CA9B1D
:100110000AC0CB9908C0CC9906C0C89B04C080E037
:1001200061E00E943600C9990AC0CA9908C0CB9BF9
:1001300006C0CC9B04C081E060E00E943600C999F3
:100140000CC0CA9B0AC0CB9B08C0C89906C0CC9BF8
:1001500004C081E060E00E943600C99B0CC0CA9BCD
:100160000AC0CB9B08C0C89906C0CC9904C080E0E7
:1001700060E00E943600C8990CC0C99B0AC0CA9BA7
:1001800008C0CB9B06C0CC9B04C081E060E00E940D
:100190003600C99B0CC0CA9B0AC0CB9B08C0C89B39
:1001A00006C0CC9904C081E060E00E943600C99B83
:1001B0000CC0CA9B0AC0CB9B08C0C89B06C0CC9B86
:1001C00004C082E062E00E94360008951F939FEF12
:1001D00097BB91BB1ABA8CEF88BB92BB1BBA8AB192
:1001E00088618AB980B5866880BD83E389B910BC0F
:1001F00012E35F9BFECF8CB18133D9F7CE9903C058
:100200000E944F00FBCF80E060E00E9436001CB9E6
:06021000F0CFF894FFCFCF
:00000001FF
