:100000000C942A000C9434000C9434000C943400AA
:100010000C9434000C9434000C9434000C94340090
:100020000C9434000C9434000C9434000C94340080
:100030000C9434000C9434000C9434000C94340070
:100040000C9434000C9434000C9434000C94340060
:100050000C94340011241FBECFE5D4E0DEBFCDBF29
:100060000E944F000C9478000C940000882311F437
:10007000C498C598662311F4C698C798813011F4C6
:10008000C49AC598613011F4C79AC698823011F4A9
:10009000C59AC498623011F4C69AC79808958FEF34
:1000A00087BB81BB88BB82BB1BBA8AB188618AB916
:1000B00080B5866880BD83E389B910BC5F9BFECFA5
:1000C0008CB1873711F481E008C0833719F482E0DE
:1000D00062E00BC0813619F480E061E006C084362E
:1000E00011F481E001C080E060E00E943600E6CFBC
:0400F000F894FFCFB2
:00000001FF
