:100000000C9446000C9463000C9463000C94630001
:100010000C9463000C9463000C9463000C946300D4
:100020000C9463000C9463000C9463000C946300C4
:100030000C9463000C9463000C9463000C946300B4
:100040000C9463000C9463000C9463000C946300A4
:100050000C9463000C9463000C9463000C94630094
:100060000C9463000C9463000C9463000C94630084
:100070000C9463000C9463000C9463000C94630074
:100080000C9463000C9463000C94630011241FBE55
:10009000CFEFD0E1DEBFCDBF11E0A0E0B1E0ECEFEB
:1000A000F0E002C005900D92A030B107D9F711E041
:1000B000A0E0B1E001C01D92A030B107E1F70E94BD
:1000C00065000C947C000C9400008FEF84BBD39AE5
:1000D0004FEF20E931E045BB88E893E1F901319722
:1000E000F1F70197D9F715BA88E893E1F90131974B
:0C00F000F1F70197D9F7EFCFF894FFCF9C
:00000001FF
