:100000000C942A000C9447000C9447000C94470071
:100010000C9447000C9447000C9447000C94470044
:100020000C9447000C9447000C9447000C94470034
:100030000C9447000C9447000C9447000C94470024
:100040000C9447000C9447000C9447000C94470014
:100050000C94470011241FBECFE5D4E0DEBFCDBF16
:1000600011E0A0E6B0E0E6E9F0E102C005900D92F3
:10007000AE36B107D9F711E0AEE6B1E001C01D928E
:10008000A437B107E1F70E945D010C9449080C9474
:100090000000662311F4C59808C0613019F4C598B2
:1000A000C49A04C0623011F4C59AC498882319F424
:1000B000C698C7980895813019F4C698C79A0895CC
:1000C000823011F4C69AC79808959FEF97BB8AEFC4
:1000D00081BB1ABA92BB86B1866086B93E9A3D9AB8
:1000E000379A81EA8FBD81E08EBD08958CB95D9B02
:1000F000FECF80E29EE40197F1F7089597B1907EDC
:10010000982B97B9369A3699FECF85B190E008952D
:100110000F931F93CF93DF9380EA90E099BD88BD42
:100120009BBD8ABD81E062E00E944900C0E0D0E052
:1001300000E21EE4C8010197F1F781E090E00E941F
:100140007E004091600050916100481759070CF4FF
:10015000CA01909361008093600082E090E00E9469
:100160007E004091620050916300481759070CF4DB
:10017000CA01909363008093620083E090E00E9444
:100180007E004091640050916500481759070CF4B7
:10019000CA0190936500809364002196CA35D10509
:1001A00049F682E061E00E94490088EB9BE028EC80
:1001B00030E0F9013197F1F70197D9F7C0E0D0E0CD
:1001C00000E21EE4C8010197F1F781E090E00E948F
:1001D0007E0040916E0150916F01841795070CF4D9
:1001E000CA0190936F0180936E0182E090E00E94BB
:1001F0007E004091700150917101841795070CF4B5
:10020000CA01909371018093700183E090E00E9495
:100210007E004091720150917301841795070CF490
:10022000CA0190937301809372012196CA35D1055A
:1002300049F681E062E00E94490082E090E00E947D
:100240007E0020917001309171012451304082175D
:1002500093079CF380E060E00E94490080916E016A
:1002600090916F012091600030916100821B930B8F
:1002700090936F0180936E01809170019091710154
:100280002091620030916300821B930B9093710167
:1002900080937001809172019091730120916400AC
:1002A00030916500821B930B9093730180937201D0
:1002B000DF91CF911F910F9108952F923F924F920E
:1002C0005F926F927F928F929F92AF92BF92CF92E6
:1002D000DF92EF92FF920F931F93DF93CF9300D0A3
:1002E00000D000D0CDB7DEB70E9465008399FECF65
:1002F0000E948800222433244424552481E090E085
:100300000E947E004C0182E090E00E947E003C0151
:1003100083E090E00E947E002091600030916100B7
:10032000821A930A20916200309163003C832B83F0
:100330002091640030916500821B930B9A8389831E
:10034000409172015091730180916E0190916F0103
:10035000481B590B480D591D89819A81481B590B1F
:100360005E834D83BA01882777FD8095982F0E9480
:10037000C4055B016C01B201882777FD8095982F39
:100380000E94C4057B018C01C601B5012FE632E154
:1003900043E85AE30E941E049B01AC01C801B70167
:1003A0000E94F1030E9422062B01ED81FE811E16A0
:1003B0001F061CF4F1E0F8BB06C02D813E81232B03
:1003C00011F032E038BBC601B50120E030E040EC6E
:1003D0005FE30E9418057B018C016D817E816219AB
:1003E0007309882777FD8095982F0E94C40520E027
:1003F00030E040E250E40E9418059B01AC01C801C6
:10040000B7010E94F1037B018C01B201882777FDBF
:100410008095982F0E94C4059B01AC01C801B701CB
:100420000E94F1030E942206CB0180519F4F20EFD2
:1004300030E0261B370B8F3F910539F034F0215007
:100440003F4F281B390B8FEF90E02F3F310539F0DC
:1004500034F081509F4F821B930B2FEF30E04DE221
:100460008416910464F5EB81FC816E1A7F0AFDE22B
:100470006F16710424F549815A814D325105FCF4FF
:1004800080E060E00E94490080E090E026960FB690
:10049000F894DEBF0FBECDBFCF91DF911F910F91BA
:1004A000FF90EF90DF90CF90BF90AF909F908F9094
:1004B0007F906F905F904F903F902F900895BC0178
:1004C00097FF02C060E070E079BD68BDC90137FFE9
:1004D00002C080E090E09BBD8ABD81E061E00E94A7
:1004E00049002D803E800ACFA0E0B0E0EAE7F2E0CC
:1004F0000C941208DC012B01FA019C91923008F453
:1005000039C1EB018881823008F433C1943069F439
:10051000843009F02FC111969C9111978981981709
:1005200009F428C1A6E6B0E025C1843009F421C150
:100530008230A9F4923009F01DC19A01AD0188E022
:10054000EA010990AE01E90109929E018150C1F7CB
:10055000E201898111969C918923818308C192309F
:1005600009F407C112962D903C901397EB018A81F4
:100570009B811496AD90BD90CD90DC901797EC8048
:10058000FD800E811F819101281B390BB90137FFB6
:1005900004C066277727621B730B603271050CF06D
:1005A00061C0121613066CF537014801062E04C00F
:1005B00096948794779467940A94D2F721E030E078
:1005C00040E050E004C0220F331F441F551F6A95BE
:1005D000D2F721503040404050402E213F2140234F
:1005E0005123211531054105510521F021E030E06D
:1005F00040E050E079018A01E628F7280829192906
:100600003CC0232BD1F1260E371E35014601062EA4
:1006100004C096948794779467940A94D2F721E063
:1006200030E040E050E004C0220F331F441F551F4C
:100630006A95D2F721503040404050402A213B215A
:100640004C215D21211531054105510521F021E0A5
:1006500030E040E050E059016A01A628B728C828D8
:10066000D9280BC0821593052CF01C01AA24BB24A9
:10067000650103C0EE24FF24870111969C91D201ED
:1006800011968C91981709F445C0992339F0A80167
:1006900097012A193B094C095D0906C0A60195017D
:1006A0002E193F09400B510B57FD08C011823382B0
:1006B000228224833583468357831DC081E0818352
:1006C0003382228288279927DC01821B930BA40B9B
:1006D000B50B84839583A683B7830DC0220F331F88
:1006E000441F551F2483358346835783828193811A
:1006F0000197938382832481358146815781DA0172
:10070000C9010197A109B1098F5F9F4FAF4FBF4347
:1007100028F30BC0918333822282EA0CFB1C0C1D50
:100720001D1DE482F5820683178383E08083248184
:1007300035814681578157FF1AC0C901AA2797FD05
:10074000A095BA2F81709070A070B07056954795A3
:1007500037952795822B932BA42BB52B84839583D8
:10076000A683B78382819381019693838283DF017D
:1007700001C0D201CD01CDB7DEB7E2E10C942E0865
:10078000A0E2B0E0E6ECF3E00C941E0869837A8303
:100790008B839C832D833E834F835887E9E0EE2E25
:1007A000F12CEC0EFD1ECE010196B7010E949A07B6
:1007B0008E010F5E1F4FCE010596B8010E949A0769
:1007C0008A8991E089278A8BC701B801AE01475E0B
:1007D0005F4F0E9474020E94C506A096E6E00C944A
:1007E0003A08A0E2B0E0E7EFF3E00C941E0869835A
:1007F0007A838B839C832D833E834F835887F9E0D4
:10080000EF2EF12CEC0EFD1ECE010196B7010E94D9
:100810009A078E010F5E1F4FCE010596B8010E9408
:100820009A07C701B801AE01475E5F4F0E9474028C
:100830000E94C506A096E6E00C943A08A0E2B0E05B
:10084000E4E2F4E00C94120869837A838B839C833E
:100850002D833E834F835887CE010196BE01675F8B
:100860007F4F0E949A07CE010596BE016F5E7F4FB3
:100870000E949A079985923088F089898230C8F061
:10088000943019F4823051F404C0843029F4923049
:1008900081F486E690E0C6C0923049F420E09A8563
:1008A0008A89981321E02A87CE010996BBC082303D
:1008B00049F420E09A858A89981321E02A8BCE0199
:1008C0004196B0C02D843E844F8458886D887E88C0
:1008D0008F88988CEE24FF248701AA24BB2465010D
:1008E00040E050E060E070E0E0E0F0E0C1018170E5
:1008F0009070892BE9F0E60CF71C081D191D9A0170
:10090000AB012A0D3B1D4C1D5D1D80E090E0A0E079
:10091000B0E0E614F7040805190520F481E090E042
:10092000A0E0B0E0BA01A901480F591F6A1F7B1F60
:10093000AA0CBB1CCC1CDD1C97FE08C081E090E01B
:10094000A0E0B0E0A82AB92ACA2ADB2A3196E03210
:10095000F10549F0660C771C881C991C5694479445
:1009600037942794C3CFFA85EA892B893C898B85F4
:100970009C85280F391F2E5F3F4F17C0CA01817019
:100980009070892B61F016950795F794E79480E0B5
:1009900090E0A0E0B0E8E82AF92A0A2B1B2B769514
:1009A0006795579547952F5F3F4F77FDE7CF0CC071
:1009B000440F551F661F771F17FD4160EE0CFF1C8B
:1009C000001F111F21503040403090E0590790E047
:1009D000690790E4790760F32B8F3C8FDB01CA0134
:1009E0008F779070A070B07080349105A105B1052B
:1009F00061F447FD0AC0E114F1040105110529F075
:100A0000405C5F4F6F4F7F4F40781A8EFE1711F09A
:100A100081E08A8F4D8F5E8F6F8F78A383E0898FFF
:100A2000CE0149960E94C506A096E2E10C942E08DC
:100A3000A8E1B0E0EEE1F5E00C941A0869837A834E
:100A40008B839C832D833E834F835887B9E0EB2EA5
:100A5000F12CEC0EFD1ECE010196B7010E949A0703
:100A60008E010F5E1F4FCE010596B8010E949A07B6
:100A70002985223008F47EC03989323010F4B8015B
:100A80007CC08A859A8989278A87243011F0223090
:100A900031F4231709F06EC066E670E06EC03430A2
:100AA00039F41D861E861F86188A1C861B8604C084
:100AB000323021F484E08987B7015FC02B853C8503
:100AC0008B899C89281B390B3C872B87ED84FE84FE
:100AD0000F851889AD88BE88CF88D88CEA14FB04AE
:100AE0000C051D0540F4EE0CFF1C001F111F2150CA
:100AF00030403C872B8720E030E040E050E080E051
:100B000090E0A0E0B0E460E070E0EA14FB040C05C3
:100B10001D0540F0282B392B4A2B5B2BEA18FB08CC
:100B20000C091D09B695A79597958795EE0CFF1CA6
:100B3000001F111F6F5F7F4F6F31710531F7DA01B1
:100B4000C9018F779070A070B07080349105A105B5
:100B5000B10561F427FD0AC0E114F1040105110596
:100B600029F0205C3F4F4F4F5F4F20782D873E8705
:100B70004F87588BBE01675F7F4FCB010E94C50630
:100B80006896EAE00C943608A8E0B0E0EAECF5E0FC
:100B90000C941B089B01AC0183E08983DA01C90135
:100BA0008827B7FD83959927AA27BB27B82E21153B
:100BB00031054105510519F482E089833AC0882343
:100BC000A9F0203080E0380780E0480780E8580727
:100BD00029F460E070E080E09FEC30C0EE24FF2458
:100BE0008701E21AF30A040B150B02C079018A018E
:100BF0008EE1C82ED12CDC82CB82ED82FE820F8367
:100C00001887C801B7010E947606019718161906C1
:100C100084F4082E04C0EE0CFF1C001F111F0A9460
:100C2000D2F7ED82FE820F831887C81AD90ADC82B8
:100C3000CB82BA82CE0101960E94C5062896E9E0D1
:100C40000C943708ACE0B0E0E8E2F6E00C9422083F
:100C500069837A838B839C83CE010196BE016B5F8F
:100C60007F4F0E949A078D81823061F1823050F16E
:100C7000843021F48E81882351F12EC02F81388554
:100C800037FD20C06E812F3131051CF06623F9F04D
:100C900023C08EE190E0821B930B29853A854B851A
:100CA0005C8504C056954795379527958A95D2F768
:100CB0006623B1F050954095309521953F4F4F4FA9
:100CC0005F4F0EC020E030E040E050E009C02FEF61
:100CD0003FEF4FEF5FE704C020E030E040E050E836
:100CE000B901CA012C96E2E00C943E08EF92FF9203
:100CF0000F931F937B018C0180E0E81680E0F806DB
:100D000081E0080780E0180788F48FEFE816F10407
:100D10000105110531F028F088E090E0A0E0B0E096
:100D200017C080E090E0A0E0B0E012C080E0E816DC
:100D300080E0F80680E0080781E0180728F088E1E5
:100D400090E0A0E0B0E004C080E190E0A0E0B0E07E
:100D500020E230E040E050E0281B390B4A0B5B0BEF
:100D600004C016950795F794E7948A95D2F7F70192
:100D7000E259FF4F8081281B310941095109C901FE
:100D80001F910F91FF90EF900895DF92EF92FF92E5
:100D90000F931F93FC01E480F58006811781D180B9
:100DA0008081823048F480E090E0A0E1B0E0E82A61
:100DB000F92A0A2B1B2BA5C0843009F49FC082306E
:100DC00021F4EE24FF24870105C0E114F10401059C
:100DD000110519F4E0E0F0E096C0628173819FEFA5
:100DE000623879070CF05BC022E83FEF261B370B17
:100DF0002A3131052CF020E030E040E050E02AC0FC
:100E0000B801A701022E04C07695679557954795BE
:100E10000A94D2F781E090E0A0E0B0E004C0880F2F
:100E2000991FAA1FBB1F2A95D2F70197A109B109E3
:100E30008E219F21A023B1230097A105B10521F0A8
:100E400081E090E0A0E0B0E09A01AB01282B392BC3
:100E50004A2B5B2BDA01C9018F779070A070B070BC
:100E600080349105A105B10539F427FF09C0205C44
:100E70003F4F4F4F5F4F04C0215C3F4F4F4F5F4F7D
:100E8000E0E0F0E02030A0E03A07A0E04A07A0E46C
:100E90005A0710F0E1E0F0E079018A0127C06038DC
:100EA000710564F5FB01E158FF4FD801C7018F7749
:100EB0009070A070B07080349105A105B10539F42F
:100EC000E7FE0DC080E490E0A0E0B0E004C08FE356
:100ED00090E0A0E0B0E0E80EF91E0A1F1B1F17FF0C
:100EE00005C016950795F794E794319687E0169517
:100EF0000795F794E7948A95D1F705C0EE24FF246F
:100F00008701EFEFF0E06E2F679566276795902FCA
:100F10009F77D794DD24D7948E2F8695492F462B23
:100F2000582F5D29B701CA011F910F91FF90EF90D3
:100F3000DF900895FC01DB01408151812281622F05
:100F40006F7770E0221F2227221F9381892F880F3D
:100F5000822B282F30E0991F9927991F11969C9377
:100F6000119721153105A9F5411551056105710547
:100F700011F482E037C082E89FEF13969C938E9322
:100F800012979A01AB0167E0220F331F441F551FD0
:100F90006A95D1F783E08C930DC0220F331F441F55
:100FA000551F12968D919C911397019713969C93C0
:100FB0008E931297203080E0380780E0480780E465
:100FC000580758F314962D933D934D935C931797C0
:100FD00008952F3F310579F44115510561057105DB
:100FE00019F484E08C93089564FF03C081E08C932E
:100FF00012C01C9210C02F57304013963C932E9372
:10100000129783E08C9387E0440F551F661F771F6C
:101010008A95D1F7706414964D935D936D937C938C
:10102000179708952F923F924F925F926F927F92FF
:101030008F929F92AF92BF92CF92DF92EF92FF92E8
:101040000F931F93CF93DF93CDB7DEB7CA1BDB0B94
:101050000FB6F894DEBF0FBECDBF09942A88398839
:1010600048885F846E847D848C849B84AA84B98440
:10107000C884DF80EE80FD800C811B81AA81B9814C
:10108000CE0FD11D0FB6F894DEBF0FBECDBFED0160
:061090000895F894FFCF63
:10109600FF00FF00FF00000000000000000000014C
:1010A6000202030303030404040404040404050500
:1010B60005050505050505050505050505050606D8
:1010C60006060606060606060606060606060606BA
:1010D60006060606060606060606060606060707A8
:1010E600070707070707070707070707070707078A
:1010F600070707070707070707070707070707077A
:101106000707070707070707070707070707070769
:101116000707070707070707070707070707080857
:101126000808080808080808080808080808080839
:101136000808080808080808080808080808080829
:101146000808080808080808080808080808080819
:101156000808080808080808080808080808080809
:1011660008080808080808080808080808080808F9
:1011760008080808080808080808080808080808E9
:1011860008080808080808080808080808080808D9
:0E1196000808080808080808080808080808DB
:00000001FF
