:100000000C9446000C9463000C9463000C94630001
:100010000C9463000C9463000C9463000C946300D4
:100020000C9463000C9463000C9463000C946300C4
:100030000C9463000C9463000C9463000C946300B4
:100040000C9463000C9463000C9463000C946300A4
:100050000C9463000C9463000C9463000C94630094
:100060000C9463000C9463000C9463000C94630084
:100070000C9463000C9463000C9463000C94630074
:100080000C9463000C9463000C94630011241FBE55
:10009000CFEFD0E1DEBFCDBF11E0A0E0B1E0E2EFF5
:1000A000F0E002C005900D92A030B107D9F711E041
:1000B000A0E0B1E001C01D92A030B107E1F70E94BD
:1000C00065000C9477000C94000088E08ABB8FEFE9
:1000D00084BB11BA12B882BB83B9869B15BA879BC1
:1000E00085BB0E9B8BBB0F99F8CF1BBAF6CFF8944C
:0200F000FFCF40
:00000001FF
