:100000000C9446000C9463000C9463000C94630001
:100010000C9463000C9463000C9463000C946300D4
:100020000C9463000C9463000C9463000C946300C4
:100030000C9463000C9463000C9463000C946300B4
:100040000C9463000C9463000C9463000C946300A4
:100050000C9463000C9463000C9463000C94630094
:100060000C9463000C9463000C9463000C94630084
:100070000C9463000C9463000C9463000C94630074
:100080000C9463000C9463000C94630011241FBE55
:10009000CFEFD0E1DEBFCDBF11E0A0E0B1E0E6E1FF
:1000A000F1E002C005900D92A030B107D9F711E040
:1000B000A0E0B1E001C01D92A030B107E1F70E94BD
:1000C00069000C9489000C94000085B58D6685BD8F
:1000D000089585B58D6685BDBF9A80E090E020EAE1
:1000E0003FE005C083BDF9013197F1F701968F3FDD
:1000F0009105C1F3BCF38FEF90E083BDF901319717
:10010000F1F701974FEF8F3F9407B9F780E090E048
:06011000EECFF894FFCFD2
:00000001FF
