:100000000C9446000C9463000C9463000C94630001
:100010000C9463000C9463000C9463000C946300D4
:100020000C9463000C9463000C9463000C946300C4
:100030000C9463000C9463000C9463000C946300B4
:100040000C9463000C9463000C9463000C946300A4
:100050000C9463000C9463000C9463000C94630094
:100060000C9463000C9463000C9463000C94630084
:100070000C9463000C9463000C9463000C94630074
:100080000C9463000C9463000C94630011241FBE55
:10009000CFEFD0E1DEBFCDBF11E0A0E0B1E0EEECEC
:1000A000F3E002C005900D92A431B107D9F711E039
:1000B000A4E1B1E001C01D92A431B107E1F70E94B3
:1000C000A3010C94E5010C940000DA9A80EA9FE009
:1000D000FC013197F1F7DA980197F1F70895D89874
:1000E000282F207F2BBBDA9A20EA3FE0F9013197D5
:1000F000F1F7DA98F9013197F1F790E044E0880FD1
:10010000991F4A95E1F78BBBDA9AC9010197F1F77C
:10011000DA98C9010197F1F708958FEF8ABB81E062
:100120000E946F0082E00E946F0088E20E946F00D0
:100130008FE00E946F0080E80E946F000895D89AB7
:10014000982F907F91609BBBDA9A20EA3FE0F901FB
:100150003197F1F7DA98F9013197F1F78295807FBD
:1001600081608BBBDA9AC9010197F1F7DA98C9016E
:100170000197F1F70895EF92FF920F931F93CF939A
:10018000DF938C01D89AC0E0D0E050EAE52E5FE022
:10019000F52E29C0C031D10524F49E012058822FAC
:1001A00004C0CE018F70907080540E946F00F801DF
:1001B00091918F01892F807F83608BBBDA9AF70141
:1001C0003197F1F7DA98F7013197F1F79295907F2F
:1001D00093609BBBDA9AC7010197F1F7DA98C701E0
:1001E0000197F1F72196F8018081882399F6DF9134
:1001F000CF911F910F91FF90EF900895803110F4EF
:1002000080580EC080E091E00E94BB0080E197E240
:1002100020E931E0F9013197F1F70197D9F781E051
:100220000E946F000895803110F480540EC080E069
:1002300091E00E94BB0080E197E220E931E0F90102
:100240003197F1F70197D9F781E00E946F00089587
:100250000F931F93DF93CF93CDB7DEB72C970FB6D5
:10026000F894DEBF0FBECDBF9C01009721F480E360
:100270000E949F0043C08E010F5F1F4FE0E0F0E03F
:10028000C9016AE070E00E94D101D8018D939D936D
:100290008D01C9016AE070E00E94D1019B01319695
:1002A0006115710569F73197EE0FFF1FDE01119699
:1002B000AE0FBF1FAE014150504020EA3FE01BC0CF
:1002C0009C91892F805D807F83608BBBDA9AF901D6
:1002D0003197F1F7DA98F9013197F1F79295907F1C
:1002E00093609BBBDA9AC9010197F1F7DA98C901CB
:1002F0000197F1F71297A417B50711F72C960FB6CF
:10030000F894DEBF0FBECDBFCF91DF911F910F914B
:1003100008950F931F93CF93DF93EC0100E911E051
:100320000AC00E949F0088EC90E0F8013197F1F735
:100330000197D9F721968881882399F7DF91CF918A
:100340001F910F9108950F931F93CF93DF930E94F6
:100350008D0081E60E949F0085E00E94FE008DE0F6
:1003600091E00E94890184E00E94130183E090E003
:100370000E942801C0E0D0E000E911E088E10E947D
:100380006F0088E893E1F8013197F1F70197D9F709
:100390002196CA30D10591F7DF91CF911F910F912E
:1003A0000895AA1BBB1B51E107C0AA1FBB1FA617BC
:1003B000B70710F0A61BB70B881F991F5A95A9F70E
:0E03C00080959095BC01CD010895F894FFCF73
:1003CE00706F7374696F6E20302D31350041646922
:0403DE0074796100CD
:00000001FF
