:100000000C9446000C9463000C9463000C94630001
:100010000C9463000C9463000C9463000C946300D4
:100020000C9463000C9463000C9463000C946300C4
:100030000C9463000C9463000C9463000C946300B4
:100040000C9463000C9463000C9463000C946300A4
:100050000C9463000C9463000C9463000C94630094
:100060000C9463000C9463000C9463000C94630084
:100070000C9463000C9463000C9463000C94630074
:100080000C9463000C9463000C94630011241FBE55
:10009000CFEFD0E1DEBFCDBF11E0A0E0B1E0E6E000
:1000A000F1E002C005900D92A030B107D9F711E040
:1000B000A0E0B1E001C01D92A030B107E1F70E94BD
:1000C0006A000C9481000C94000083B7876083BFA2
:1000D00012BE089583B7876083BF12BE8FEF84BBC3
:1000E00020E030E006B600FEFDCF86B7816086BF17
:1000F0002F5F3F4F2D333105A9F785B3809585BB21
:06010000EFCFF894FFCFE1
:00000001FF
