:100000000C9446000C9463000C9463000C94630001
:100010000C9463000C9463000C9463000C946D00CA
:100020000C947B000C9463000C9463000C946300AC
:100030000C9463000C9463000C9463000C946300B4
:100040000C9463000C9463000C9463000C946300A4
:100050000C9463000C9463000C9463000C94630094
:100060000C9463000C9463000C9463000C94630084
:100070000C9463000C9463000C9463000C94630074
:100080000C9463000C9463000C94630011241FBE55
:10009000CFEFD0E1DEBFCDBF11E0A0E0B1E0EEE2F6
:1000A000F1E002C005900D92A030B107D9F711E040
:1000B000A0E0B1E001C01D92A030B107E1F70E94BD
:1000C00089000C9495000C9400008AB7806A8ABF5E
:1000D00089B7806C89BF789408951F920F920FB6EC
:1000E0000F9211248F938AEA85BB8F910F900FBED8
:1000F0000F901F9018951F920F920FB60F92112418
:100100008F9385E585BB8F910F900FBE0F901F9049
:1001100018958AB7806A8ABF89B7806C89BF78943E
:0E0120008FEF84BB12B883B9FFCFF894FFCFE6
:00000001FF
